S01700004175746F547261636B696E674C44522E737265635F
S11300000C942A000C9447000C9447000C9447006D
S11300100C9447000C9447000C9447000C94470040
S11300200C9447000C9447000C9447000C94470030
S11300300C9447000C9447000C9447000C94470020
S11300400C9447000C9447000C9447000C94470010
S11300500C94470011241FBECFE5D8E0DEBFCDBF0E
S113006016E0A0E6B0E0EEE2F9E002C005900D92E1
S1130070AA39B107D9F726E0AAE9B6E001C01D9272
S1130080AE3AB207E1F70E94B7020C9495040C94BF
S113009000001ABA80E487B987E886B9089597B151
S11300A0987F8770892B87B9369A3699FECF84B1A9
S11300B095B1089560E080E00E94C80180E690E078
S11300C00E94270261E080E00E94C80181E790E07D
S11300D00E942702089563E080E00E94C8018FE730
S11300E090E00E94270264E080E00E94C80189E851
S11300F090E00E94270265E080E00E94C8018FE73B
S113010090E00E9427020895CF93DF93EB01682FBC
S11301106E7F6D5F817094E2899F802D1124885ECB
S11301200E94C8012AE030E0CE01B9010E94160401
S1130130C82FCB01B9010E941604805D0E940302FE
S113014080E38C0F0E94030267E082E10E94C801F1
S11301502AB53BB53695279536952795ABE7B4E197
S11301600E94490496958795805D0E9403022AB5F2
S11301703BB5ADECBCEC0E944904AC0156954795E7
S113018056954795569547959A010E944904969528
S1130190879596958795969587959C01220F331F91
S11301A0880F991F880F991F880F991F820F931F1B
S11301B09A01281B390BC901805D0E9403024AB5CC
S11301C05BB59A01ADECBCEC0E9449049695879509
S11301D096958795969587959C01220F331F880FD6
S11301E0991F880F991F880F991F820F931F9A01D7
S11301F0281B390BC901805D0E94030267E082E479
S11302000E94C80128B539B53695279536952795A6
S1130210ABE7B4E10E94490496958795805D0E94FE
S1130220030228B539B5ADECBCEC0E944904AC011D
S11302305695479556954795569547959A010E9428
S113024049049695879596958795969587959C01EB
S1130250220F331F880F991F880F991F880F991F2A
S1130260820F931F9A01281B390BC901805D0E94DC
S1130270030248B559B59A01ADECBCEC0E9449049F
S11302809695879596958795969587959C01220FC7
S1130290331F880F991F880F991F880F991F820F8A
S11302A0931F9A01281B390BC901805D0E94030228
S11302B0DF91CF910895A998AA9AAB9AAB9827E0B9
S11302C030E090E0AC01022E02C0559547950A94A7
S11302D0E2F740FF02C0AA9A01C0AA98AB9AAB9871
S11302E02150310978F7A99A0895A998AA98AB9A48
S11302F0AB9827E030E090E0AC01022E02C05595A7
S113030047950A94E2F740FF02C0AA9A01C0AA984E
S1130310AB9AAB982150310978F7A99A089584B320
S11303208F6084BBAB98A8982FEF80E792E02150B0
S113033080409040E1F700C00000A89AA9988FE996
S11303409FE00197F1F700C00000A99A8FE99FE0B0
S11303500197F1F700C000008FE20E94750180E967
S11303600E94750186EA0E94750184EA0E94750163
S11303708FEA0E94750180E40E94750180EB0E945F
S1130380750180E10E94750180E00E947501089565
S1130390CF93C82F80EB860F0E9475018C2F8F7727
S11303A082958F7080610E9475018C2F8F700E94DE
S11303B07501CF910895CF93DF9360E080E00E94B0
S11303C0C801D9E007C080E00E945B01C150D9F7A1
S11303D0D15011F0C1E6F7CFDF91CF910895CF93BB
S11303E0DF9360E080E00E94C801D9E007C08FEF8E
S11303F00E945B01C150D9F7D15011F0C0E6F7CF8C
S1130400DF91CF9108950F931F93CF93DF9390E0E3
S1130410EC01CC0FDD1FC80FD91FCC0FDD1FC65652
S1130420DF4F01968C01000F111F800F911F8C016B
S1130430000F111F06561F4F89910E945B01C017C0
S1130440D107D1F7DF91CF911F910F9108950F93A9
S11304501F93CF93DF93FC0101900020E9F73197BC
S1130460E81BF90B1E161F0654F4EC018C010E0F49
S11304701F1F89910E940302C017D107D1F7DF9192
S1130480CF911F910F9108950F931F93CF93DF93F3
S1130490D82FCFE000E010E08D2F0E944F00080F0E
S11304A0191FC150C9F79801A9E8B8E80E94490486
S11304B0DC01B695A795B695A795B695A79524E6BC
S11304C030E00E9458042FEF33E040E050E00E94F7
S11304D02A0484E690E0821B930BDF91CF911F9155
S11304E00F9108952FEF81EE94E0215080409040C9
S11304F0E1F700C000000E9449002FEF80E792E07E
S1130500215080409040E1F700C000000E94D002DA
S11305102FEF80E792E0215080409040E1F700C047
S113052000000E948F012FEF80E792E0215080406D
S11305309040E1F700C000000E94EF012FEF89E630
S113054098E1215080409040E1F700C000000E94F3
S1130550DB012FEF82E597E0215080409040E1F7E6
S113056000C000000E945A000E946B0008950E947F
S113057072020E94E80280E290E09BBD8ABD99BDB0
S113058088BD17BA8FEF88BB2FEF81EE94E021501E
S113059080409040E1F700C000000E94EC02F4CFDC
S11305A081B3806381BB81EE94E097BD86BD1BBCA3
S11305B01ABC19BC18BC8FB58F758FBD8EB58460FD
S11305C08EBD8FB582608FBD8EB588618EBD089556
S11305D08FB5806A8FBD0895CF93DF9380E00E942A
S11305E044029093AD068093AC0681E00E944402DD
S11305F090939F0680939E0682E00E944402059792
S11306009093A9068093A80683E00E9444029093E5
S1130610A1068093A0066091AC067091AD0680E0BF
S11306200E94840060919E0670919F0681E00E9462
S113063084006091A8067091A90682E00E9484005B
S11306406091A0067091A10683E00E948400E0916D
S1130650AC06F091AD0660919E0670919F06AF01C5
S1130660460F571F559547955093AB064093AA06DE
S11306702091A8063091A9068091A0069091A10628
S1130680A901480F591F5595479550939B064093D0
S11306909A062E0F3F1F3595279530939D0620937C
S11306A09C06860F971F959587959093A706809330
S11306B0A60662E08AE20E94C8018091AA0690918F
S11306C0AB06CAE0D0E0BE010E941604CB01BE0115
S11306D00E941604805D0E9403028091AA069091F4
S11306E0AB06BE010E941604805D0E94030266E010
S11306F08AE20E94C80180919A0690919B06BE01ED
S11307000E941604CB01BE010E941604805D0E9463
S1130710030280919A0690919B06BE010E941604E2
S1130720805D0E94030264E086E00E94C80180911B
S11307309C0690919D06BE010E941604CB01BE0149
S11307400E941604805D0E94030280919C06909191
S11307509D06BE010E941604805D0E94030264E0AF
S113076082E40E94C8018091A6069091A706BE016A
S11307700E941604CB01BE010E941604805D0E94F3
S113078003028091A6069091A706BE010E9416045A
S1130790805D0E9403028091AA069091AB0620918D
S11307A09A0630919B06821B930B9093A306809329
S11307B0A20620919C0630919D064091A606509178
S11307C0A706241B350B3093A5062093A4069C0191
S11307D0992324F422273327281B390B223031058F
S11307E054F028B539B565E070E00E941604261B64
S11307F0370B39BD28BD8091A4069091A5069C01B4
S1130800992324F422273327281B390B223031055E
S113081054F02AB53BB565E070E00E941604261B2F
S1130820370B3BBD2ABDDF91CF91089597FB072E6F
S113083016F4009407D077FD09D00E945F0407FCEA
S113084005D03EF4909581959F4F089570956195DC
S11308507F4F0895052E97FB1EF400940E944104D7
S113086057FD07D00E94730407FC03D04EF40C9488
S1130870410450954095309521953F4F4F4F5F4F20
S1130880089590958095709561957F4F8F4F9F4FF8
S11308900895A29FB001B39FC001A39F700D811D55
S11308A01124911DB29F700D811D1124911D089575
S11308B00E944904B7FF0895821B930B0895AA1B55
S11308C0BB1B51E107C0AA1FBB1FA617B70710F037
S11308D0A61BB70B881F991F5A95A9F78095909569
S11308E0BC01CD010895A1E21A2EAA1BBB1BFD0178
S11308F00DC0AA1FBB1FEE1FFF1FA217B307E407FB
S1130900F50720F0A21BB30BE40BF50B661F771F52
S1130910881F991F1A9469F7609570958095909532
S11109209B01AC01BD01CF010895F894FFCFF7
S113092E4175746F547261636B696E67204C4452E7
S113093E00202053636F7270696F6E495058002007
S113094E2020202020207C7C003D3D3D3D3D3D3D32
S113095E3D3D3D3D3D3D3D3D3D0000000000000060
S113096E006418046418003C4040207C000C3040A5
S113097E300C003C4030403C00003E1C080000049B
S113098E1E1F1E0400103C7C3C100020403E010241
S113099E00221408142200003828380000001038F1
S11309AE100000000010000000087808000000008D
S11309BE15150A00007F7F0909010010207F01012F
S11309CE00040400011F00001915120000406050BD
S11309DE4844000609090600000F02010100000048
S11309EE011F01000044444A4A510014741C171498
S11309FE00514A4A444400000004040400007C549C
S1130A0E54440008082A1C08007C007C447C000422
S1130A1E027F02040010207F20100000000000005E
S1130A2E0000006F000000000700070000147F1490
S1130A3E7F14000007041E000023130864620036AE
S1130A4E4956205000000007000000001C224100FF
S1130A5E000041221C000014083E08140008083E41
S1130A6E08080000503000000008080808080000BC
S1130A7E60600000002010080402003E5149453E0B
S1130A8E0000427F40000042615149460021414529
S1130A9E4B31001814127F10002745454539003C90
S1130AAE4A4949300001710905030036494949365E
S1130ABE00064949291E000036360000000056364D
S1130ACE0000000814224100001414141414000031
S1130ADE41221408000201510906003E415D494EAF
S1130AEE007E0909097E007F49494936003E41418D
S1130AFE4122007F4141413E007F49494941007FE7
S1130B0E09090901003E4149497A007F0808087F16
S1130B1E0000417F4100002040413F01007F081446
S1130B2E2241007F40404040007F020C027F007F44
S1130B3E0408107F003E4141413E007F0909090629
S1130B4E003E4151215E007F09192946004649495C
S1130B5E49310001017F0101003F4040403F000F39
S1130B6E3040300F003F4030403F006314081463A0
S1130B7E000708700807006151494543003C4A4983
S1130B8E291E0002040810200000417F000000040A
S1130B9E02010204004040404040000000030400F3
S1130BAE002054545478007F484444380038444458
S1130BBE442000384444487F0038545454180008E4
S1130BCE7E090102000C5252523E007F0804047842
S1130BDE0000447D4000002040443D0000007F1092
S1130BEE28440000417F4000007C04180478007CF7
S1130BFE08040478003844444438007C141414085F
S1130C0E00081414187C007C08040408004854548A
S1130C1E542000043F444020003C4040207C001CF3
S1130C2E2040201C003C4030403C00442810284406
S1130C3E000C5050503C004464544C4400000836A0
S1130C4E41410000007F00000041413608000004CD
S1130C5E02040804007F6B6B6B7F00007C447C00F5
S1130C6E0000087C00000000645448000000445456
S1130C7E280000001C10780000005C5424000000C2
S1130C8E78547400000064140C0000007C547C0042
S1130C9E00005C543C000078242625780078252634
S1130CAE247800702A292A700078252425780020BB
S1130CBE545655780020555654780020565556787B
S1130CCE002055545578007C54565544007C555696
S1130CDE5444007C56555644007C555455440038B3
S1130CEE545655180038555654180038565556183B
S1130CFE0038555455180000447E45000000457ECA
S1130D0E44000000467D46000000457C450000007E
S1130D1E487A41000000497A400000004A794200B6
S1130D2E00004978410000384446453800384546AD
S1130D3E4438003846454638003845444538003076
S1130D4E484A49300030494A483000304A494A300E
S1130D5E003049484930003C4042413C003C41424D
S1130D6E403C003C4241423C003C4140413C003C42
S1130D7E4042217C003C4142207C00384241227892
S1130D8E003C4140217C004E5171110A00586464AC
S1130D9E2410007C0A11227D007812090A710000C9
S1130DAE000402010001020400000000020002001F
S1130DBE0030484540200000007B000000384444C9
S1130DCE384400403E49493600080408700C00605F
S1130DDE5048506000205255593000385454540035
S1130DEE0000007F4100004022141860007C202087
S1130DFE1C2000443C047C4400403C12120C004174
S1130E0E63554941003844443C040008043C4424DE
S1130E1E0008147F1408004E7101714E004529110B
S1130E2E2945000D5151513D0000000502050040B9
S1130E3E004000400000081C3E00001C1C1C00006A
S1130E4E00007008070000000808080000001D15C7
S1130E5E1700000007050700000011150A00000026
S1130E6E0000000000043C412000007C161516080A
S1130E7E002116083442007F091D01030038545422
S1130E8E14080000007C4040007F0E1C387F004197
S1130E9E225D221C001C3E1C0800007F7F7F7F7F8A
S1130EAE00777B017B77007F4375437F007F6F550F
S1130EBE437F0040404040400044425F4244004073
S1130ECE5E455E40004048555E4000000408102018
S1130EDE0003070E1C38000103070F1F007C7870F7
S1130EEE60400008081C221C00001C221C0000028A
S1130EFE0008002000043E3F3E0400103E7E3E10DB
S1130F0E00552A552A5500242A7F2A1200041E1F32
S1130F1E1E0400000000000000000000000000009D
S1130F2E00000000000000000000000000000000AF
S1130F3E000000000000000000000000000000009F
S1130F4E000000000000000000000000000000008F
S10D0F5E0000000000000000000085
S9030000FC
