S01700004175746F547261636B696E674C44522E737265635F
S11300000C942A000C943F000C943F000C943F0085
S11300100C943F000C943F000C943F000C943F0060
S11300200C943F000C943F000C943F000C943F0050
S11300300C943F000C943F000C943F000C943F0040
S11300400C943F000C943F000C943F000C943F0030
S11300500C943F0011241FBECFE5D8E0DEBFCDBF16
S113006016E0A0E6B0E0ECEBF5E002C005900D92DE
S1130070AC3BB107D9F70E94FC010C94DC020C9450
S113008000001ABA80E487B987E886B9089597B161
S1130090987F8770892B87B9369A3699FECF84B1B9
S11300A095B1089560E080E00E94270180E690E029
S11300B00E94860161E080E00E94270181E790E0D0
S11300C00E948601089563E080E00E9427018FE783
S11300D090E00E94860164E080E00E9427018EE89F
S11300E090E00E94860165E080E00E9427018DE98E
S11300F090E00E94860166E080E00E9427018CEA7D
S113010090E00E94860108950F931F93CF93DF938D
S11301108B0163E0680F8CE30E942701C80168EE3D
S113012073E00E94640280E3860F0E946201C801AA
S113013064E670E00E946402CB01CAE0D0E0BE0134
S11301400E946402805D0E946201C801BE010E9497
S11301506402182FCB01BE010E946402805D0E94DC
S1130160620180E3810F0E946201DF91CF911F91B0
S11301700F910895A998AA9AAB9AAB9827E030E01A
S113018090E0AC01022E02C0559547950A94E2F71F
S113019040FF02C0AA9A01C0AA98AB9AAB9821501A
S11301A0310978F7A99A0895A998AA98AB9AAB98B7
S11301B027E030E090E0AC01022E02C0559547954F
S11301C00A94E2F740FF02C0AA9A01C0AA98AB9A27
S11301D0AB982150310978F7A99A089584B38F60B8
S11301E084BBAB98A8982FEF80E792E02150804021
S11301F09040E1F700C00000A89AA9988FE99FE019
S11302000197F1F700C00000A99A8FE99FE00197D8
S1130210F1F700C000008FE20E94D40080E90E9440
S1130220D40086EA0E94D40084EA0E94D4008FEAB3
S11302300E94D40080E40E94D40080EB0E94D40089
S113024080E10E94D40080E00E94D4000895CF93FE
S1130250C82F80EB860F0E94D4008C2F8F77829555
S11302608F7080610E94D4008C2F8F700E94D40004
S1130270CF910895CF93DF9360E080E00E9427013F
S1130280D9E007C080E00E94BA00C150D9F7D1502C
S113029011F0C1E6F7CFDF91CF910895CF93DF93AB
S11302A060E080E00E942701D9E007C08FEF0E9440
S11302B0BA00C150D9F7D15011F0C0E6F7CFDF91A1
S11302C0CF9108950F931F93CF93DF9390E0EC01A8
S11302D0CC0FDD1FC80FD91FCC0FDD1FC554DF4F56
S11302E001968C01000F111F800F911F8C01000FCC
S11302F0111F05541F4F89910E94BA00C017D107DE
S1130300D1F7DF91CF911F910F9108950F931F9310
S1130310CF93DF93FC0101900020E9F73197E81BAC
S1130320F90B1E161F0654F4EC018C010E0F1F1F4F
S113033089910E946201C017D107D1F7DF91CF9153
S11303401F910F9108950E9447009C01A8EEB3E00D
S11303500E9497022FEF33E040E050E00E947802C1
S113036068EE73E0621B730B80E090E008952FEF5A
S113037081EE94E0215080409040E1F700C00000FD
S11303800E9441002FEF80E792E02150804090408E
S1130390E1F700C000000E9448022FEF80E792E0DE
S11303A0215080409040E1F700C000000E94EE0020
S11303B02FEF80E792E0215080409040E1F700C0A9
S11303C000000E944E012FEF89E698E12150804001
S11303D09040E1F700C000000E943A012FEF82E54F
S11303E097E0215080409040E1F700C000000E9457
S11303F052000E94630008950E94B7010E946002A7
S113040080E290E09BBD8ABD17BA8FEF88BBCAE03B
S1130410D0E02FEF84E694E0215080409040E1F753
S113042000C0000080E00E94A3014B015C0181E058
S11304300E94A3016B017C01B40180E00E9484004E
S1130440B60181E00E9484006AB57BB582E00E9417
S11304508400C818D908B60183E00E9484002AB534
S11304603BB5C601BE010E946402260F371F3BBD87
S11304702ABDB09905C08AB59BB501969BBD8ABDBE
S1130480B199C7CF8AB59BB501979BBD8ABDC1CF32
S113049081B3806381BB81EE94E097BD86BD1BBCB4
S11304A01ABC19BC18BC8FB58F758FBD8EB584600E
S11304B08EBD8FB582608FBD8EB588618EBD089567
S11304C08FB5806A8FBD089597FB072E16F40094AC
S11304D007D077FD09D00E94A60207FC05D03EF4A0
S11304E0909581959F4F0895709561957F4F0895DC
S11304F0052E97FB1EF400940E948F0257FD07D02F
S11305000E94BA0207FC03D04EF40C948F0250955B
S11305104095309521953F4F4F4F5F4F08959095EB
S11305208095709561957F4F8F4F9F4F0895A29F3F
S1130530B001B39FC001A39F700D811D1124911DB3
S1130540B29F700D811D1124911D0895AA1BBB1B20
S113055051E107C0AA1FBB1FA617B70710F0A61BBF
S1130560B70B881F991F5A95A9F780959095BC01E0
S1130570CD010895A1E21A2EAA1BBB1BFD010DC0DB
S1130580AA1FBB1FEE1FFF1FA217B307E407F5073F
S113059020F0A21BB30BE40BF50B661F771F881F1B
S11305A0991F1A9469F760957095809590959B01B1
S10F05B0AC01BD01CF010895F894FFCF09
S11305BC4175746F547261636B696E67204C44525D
S11305CC00202053636F7270696F6E495058004C51
S11305DC696768742073313A206E2F6125004C6969
S11305EC6768742073323A206E2F6125004C69675A
S11305FC68742073333A206E2F6125004C69676848
S113060C742073343A206E2F612500000000000022
S113061C00006418046418003C4040207C000C303A
S113062C40300C003C4030403C00003E1C080000B4
S113063C041E1F1E0400103C7C3C100020403E0194
S113064C020022140814220000382838000000107C
S113065C38100000000010000000087808000000AA
S113066C0015150A00007F7F0909010010207F0185
S113067C0100040400011F00001915120000406061
S113068C504844000609090600000F02010100004D
S113069C00011F01000044444A4A510014741C1701
S11306AC1400514A4A444400000004040400007C31
S11306BC5454440008082A1C08007C007C447C0028
S11306CC04027F02040010207F20100000000000B0
S11306DC000000006F000000000700070000147FFA
S11306EC147F14000007041E000023130864620026
S11306FC364956205000000007000000001C22411F
S113070C00000041221C000014083E0814000808D4
S113071C3E080800005030000000080808080800D3
S113072C0060600000002010080402003E5149459E
S113073C3E0000427F400000426151494600214185
S113074C454B31001814127F1000274545453900DC
S113075C3C4A4949300001710905030036494949AD
S113076C3600064949291E000036360000000056A2
S113077C3600000008142241000014141414140050
S113078C0041221408000201510906003E415D4952
S113079C4E007E0909097E007F49494936003E41D5
S11307AC414122007F4141413E007F49494941007A
S11307BC7F09090901003E4149497A007F0808086C
S11307CC7F0000417F4100002040413F01007F0831
S11307DC142241007F40404040007F020C027F0005
S11307EC7F0408107F003E4141413E007F09090906
S11307FC06003E4151215E007F09192946004649F5
S113080C4949310001017F0101003F4040403F0054
S113081C0F3040300F003F4030403F006314081449
S113082C63000708700807006151494543003C4ABE
S113083C49291E0002040810200000417F0000001A
S113084C0402010204004040404040000000030444
S113085C00002054545478007F48444438003844F1
S113086C44442000384444487F00385454541800FD
S113087C087E090102000C5252523E007F08040407
S113088C780000447D4000002040443D0000007F7F
S113089C1028440000417F4000007C0418047800B8
S11308AC7C08040478003844444438007C14141440
S11308BC0800081414187C007C080404080048542C
S11308CC54542000043F444020003C4040207C0011
S11308DC1C2040201C003C4030403C004428102884
S11308EC44000C5050503C004464544C44000008E8
S11308FC3641410000007F000000414136080000F1
S113090C0402040804007F6B6B6B7F00007C447C46
S113091C000000087C0000000064544800000044FF
S113092C54280000001C10780000005C54240000C3
S113093C0078547400000064140C0000007C547C97
S113094C0000005C543C00007824262578007825AF
S113095C26247800702A292A70007825242578000A
S113096C2054565578002055565478002056555628
S113097C78002055545578007C54565544007C55C9
S113098C565444007C56555644007C5554554400EA
S113099C3854565518003855565418003856555670
S11309AC180038555455180000447E450000004585
S11309BC7E44000000467D46000000457C45000056
S11309CC00487A41000000497A400000004A79420C
S11309DC0000004978410000384446453800384549
S11309EC46443800384645463800384544453800B6
S11309FC30484A49300030494A483000304A494A64
S1130A0C30003049484930003C4042413C003C41B4
S1130A1C42403C003C4241423C003C4140413C0091
S1130A2C3C4042217C003C4142207C003842412223
S1130A3C78003C4140217C004E5171110A005864ED
S1130A4C642410007C0A11227D007812090A7100BA
S1130A5C0000040201000102040000000002000274
S1130A6C000030484540200000007B000000384462
S1130A7C44384400403E49493600080408700C00D0
S1130A8C605048506000205255593000385454542A
S1130A9C000000007F4100004022141860007C20FC
S1130AAC201C2000443C047C4400403C12120C00EA
S1130ABC4163554941003844443C040008043C4417
S1130ACC240008147F1408004E7101714E0045294E
S1130ADC112945000D5151513D000000050205003E
S1130AEC40004000400000081C3E00001C1C1C0080
S1130AFC0000007008070000000808080000001D32
S1130B0C151700000007050700000011150A000066
S1130B1C000000000000043C412000007C16151667
S1130B2C08002116083442007F091D0103003854C3
S1130B3C5414080000007C4040007F0E1C387F00D9
S1130B4C41225D221C001C3E1C0800007F7F7F7F1D
S1130B5C7F00777B017B77007F4375437F007F6F3A
S1130B6C55437F0040404040400044425F424400B3
S1130B7C405E455E40004048555E4000000408104D
S1130B8C200003070E1C38000103070F1F007C789C
S1130B9C7060400008081C221C00001C221C000071
S1130BAC020008002000043E3F3E0400103E7E3E3E
S1130BBC1000552A552A5500242A7F2A1200041E97
S1130BCC1F1E0400000000000000000000000000D4
S1130BDC0000000000000000000000000000000005
S1130BEC00000000000000000000000000000000F5
S1130BFC00000000000000000000000000000000E5
S10F0C0C000000000000000000000000D8
S9030000FC
